{
  "contractName": "Cinema",
  "abi": [
    {
      "anonymous": false,
      "inputs": [
        {
          "indexed": false,
          "internalType": "uint256",
          "name": "id",
          "type": "uint256"
        },
        {
          "indexed": false,
          "internalType": "string",
          "name": "filmName",
          "type": "string"
        },
        {
          "indexed": false,
          "internalType": "uint256",
          "name": "budget",
          "type": "uint256"
        },
        {
          "indexed": false,
          "internalType": "string",
          "name": "directorName",
          "type": "string"
        },
        {
          "indexed": false,
          "internalType": "string",
          "name": "poster",
          "type": "string"
        },
        {
          "indexed": false,
          "internalType": "string",
          "name": "script",
          "type": "string"
        },
        {
          "indexed": false,
          "internalType": "string",
          "name": "shortDescription",
          "type": "string"
        },
        {
          "indexed": false,
          "internalType": "bool",
          "name": "payedBack",
          "type": "bool"
        },
        {
          "indexed": false,
          "internalType": "uint256",
          "name": "interestAmount",
          "type": "uint256"
        },
        {
          "indexed": false,
          "internalType": "address payable",
          "name": "directorWalletAddress",
          "type": "address"
        }
      ],
      "name": "FilmCreated",
      "type": "event"
    },
    {
      "inputs": [],
      "name": "artistCount",
      "outputs": [
        {
          "internalType": "uint256",
          "name": "",
          "type": "uint256"
        }
      ],
      "stateMutability": "view",
      "type": "function"
    },
    {
      "inputs": [
        {
          "internalType": "uint256",
          "name": "",
          "type": "uint256"
        }
      ],
      "name": "films",
      "outputs": [
        {
          "internalType": "uint256",
          "name": "id",
          "type": "uint256"
        },
        {
          "internalType": "string",
          "name": "filmName",
          "type": "string"
        },
        {
          "internalType": "uint256",
          "name": "budget",
          "type": "uint256"
        },
        {
          "internalType": "string",
          "name": "directorName",
          "type": "string"
        },
        {
          "internalType": "string",
          "name": "poster",
          "type": "string"
        },
        {
          "internalType": "string",
          "name": "script",
          "type": "string"
        },
        {
          "internalType": "string",
          "name": "shortDescription",
          "type": "string"
        },
        {
          "internalType": "bool",
          "name": "payedBack",
          "type": "bool"
        },
        {
          "internalType": "uint256",
          "name": "interestAmount",
          "type": "uint256"
        },
        {
          "internalType": "address payable",
          "name": "directorWalletAddress",
          "type": "address"
        }
      ],
      "stateMutability": "view",
      "type": "function"
    },
    {
      "inputs": [
        {
          "internalType": "uint256",
          "name": "",
          "type": "uint256"
        },
        {
          "internalType": "uint256",
          "name": "",
          "type": "uint256"
        }
      ],
      "name": "filmsCast",
      "outputs": [
        {
          "internalType": "uint256",
          "name": "filmId",
          "type": "uint256"
        },
        {
          "internalType": "string",
          "name": "image",
          "type": "string"
        },
        {
          "internalType": "string",
          "name": "name",
          "type": "string"
        }
      ],
      "stateMutability": "view",
      "type": "function"
    },
    {
      "inputs": [],
      "name": "filmsCount",
      "outputs": [
        {
          "internalType": "uint256",
          "name": "",
          "type": "uint256"
        }
      ],
      "stateMutability": "view",
      "type": "function"
    },
    {
      "inputs": [
        {
          "internalType": "uint256",
          "name": "",
          "type": "uint256"
        }
      ],
      "name": "filmsDetails",
      "outputs": [
        {
          "internalType": "uint256",
          "name": "id",
          "type": "uint256"
        },
        {
          "internalType": "uint256",
          "name": "budgetToRaise",
          "type": "uint256"
        },
        {
          "internalType": "uint256",
          "name": "fundRaised",
          "type": "uint256"
        },
        {
          "internalType": "uint256",
          "name": "castCount",
          "type": "uint256"
        },
        {
          "internalType": "string",
          "name": "status",
          "type": "string"
        },
        {
          "internalType": "string",
          "name": "category",
          "type": "string"
        }
      ],
      "stateMutability": "view",
      "type": "function"
    },
    {
      "inputs": [
        {
          "internalType": "string",
          "name": "_filmName",
          "type": "string"
        },
        {
          "internalType": "uint256",
          "name": "_budget",
          "type": "uint256"
        },
        {
          "internalType": "string",
          "name": "_directorName",
          "type": "string"
        },
        {
          "internalType": "string",
          "name": "_poster",
          "type": "string"
        },
        {
          "internalType": "string",
          "name": "_script",
          "type": "string"
        },
        {
          "internalType": "string",
          "name": "_shortDescription",
          "type": "string"
        },
        {
          "internalType": "uint256",
          "name": "_interestAmount",
          "type": "uint256"
        },
        {
          "internalType": "string",
          "name": "_category",
          "type": "string"
        }
      ],
      "name": "createFilm",
      "outputs": [],
      "stateMutability": "nonpayable",
      "type": "function"
    },
    {
      "inputs": [
        {
          "internalType": "uint256",
          "name": "_filmId",
          "type": "uint256"
        },
        {
          "internalType": "string",
          "name": "_name",
          "type": "string"
        },
        {
          "internalType": "string",
          "name": "_image",
          "type": "string"
        }
      ],
      "name": "addCastToFilm",
      "outputs": [],
      "stateMutability": "nonpayable",
      "type": "function"
    },
    {
      "inputs": [
        {
          "internalType": "uint256",
          "name": "_filmId",
          "type": "uint256"
        }
      ],
      "name": "getFilmCast",
      "outputs": [
        {
          "internalType": "uint256",
          "name": "",
          "type": "uint256"
        },
        {
          "internalType": "string",
          "name": "",
          "type": "string"
        },
        {
          "internalType": "string",
          "name": "",
          "type": "string"
        }
      ],
      "stateMutability": "view",
      "type": "function"
    }
  ],
  "bytecode": "0x608060405260008055600060015534801561001957600080fd5b50611e8f806100296000396000f3fe608060405234801561001057600080fd5b50600436106100885760003560e01c806393aab8d81161005b57806393aab8d8146106e4578063be5304821461098e578063bf505526146109ac578063f2e4b9e414610ad057610088565b80633db12cf91461008d5780635c967701146101a7578063785bd5c31461056a5780638947870e146106c6575b600080fd5b6100b9600480360360208110156100a357600080fd5b8101908080359060200190929190505050610bff565b604051808481526020018060200180602001838103835285818151815260200191508051906020019080838360005b838110156101035780820151818401526020810190506100e8565b50505050905090810190601f1680156101305780820380516001836020036101000a031916815260200191505b50838103825284818151815260200191508051906020019080838360005b8381101561016957808201518184015260208101905061014e565b50505050905090810190601f1680156101965780820380516001836020036101000a031916815260200191505b509550505050505060405180910390f35b61056860048036036101008110156101be57600080fd5b81019080803590602001906401000000008111156101db57600080fd5b8201836020820111156101ed57600080fd5b8035906020019184600183028401116401000000008311171561020f57600080fd5b91908080601f016020809104026020016040519081016040528093929190818152602001838380828437600081840152601f19601f820116905080830192505050505050509192919290803590602001909291908035906020019064010000000081111561027c57600080fd5b82018360208201111561028e57600080fd5b803590602001918460018302840111640100000000831117156102b057600080fd5b91908080601f016020809104026020016040519081016040528093929190818152602001838380828437600081840152601f19601f8201169050808301925050505050505091929192908035906020019064010000000081111561031357600080fd5b82018360208201111561032557600080fd5b8035906020019184600183028401116401000000008311171561034757600080fd5b91908080601f016020809104026020016040519081016040528093929190818152602001838380828437600081840152601f19601f820116905080830192505050505050509192919290803590602001906401000000008111156103aa57600080fd5b8201836020820111156103bc57600080fd5b803590602001918460018302840111640100000000831117156103de57600080fd5b91908080601f016020809104026020016040519081016040528093929190818152602001838380828437600081840152601f19601f8201169050808301925050505050505091929192908035906020019064010000000081111561044157600080fd5b82018360208201111561045357600080fd5b8035906020019184600183028401116401000000008311171561047557600080fd5b91908080601f016020809104026020016040519081016040528093929190818152602001838380828437600081840152601f19601f82011690508083019250505050505050919291929080359060200190929190803590602001906401000000008111156104e257600080fd5b8201836020820111156104f457600080fd5b8035906020019184600183028401116401000000008311171561051657600080fd5b91908080601f016020809104026020016040519081016040528093929190818152602001838380828437600081840152601f19601f820116905080830192505050505050509192919290505050610da9565b005b6106c46004803603606081101561058057600080fd5b8101908080359060200190929190803590602001906401000000008111156105a757600080fd5b8201836020820111156105b957600080fd5b803590602001918460018302840111640100000000831117156105db57600080fd5b91908080601f016020809104026020016040519081016040528093929190818152602001838380828437600081840152601f19601f8201169050808301925050505050505091929192908035906020019064010000000081111561063e57600080fd5b82018360208201111561065057600080fd5b8035906020019184600183028401116401000000008311171561067257600080fd5b91908080601f016020809104026020016040519081016040528093929190818152602001838380828437600081840152601f19601f820116905080830192505050505050509192919290505050611425565b005b6106ce6116e3565b6040518082815260200191505060405180910390f35b610710600480360360208110156106fa57600080fd5b81019080803590602001909291905050506116e9565b604051808b8152602001806020018a815260200180602001806020018060200180602001891515151581526020018881526020018773ffffffffffffffffffffffffffffffffffffffff1673ffffffffffffffffffffffffffffffffffffffff16815260200186810386528f818151815260200191508051906020019080838360005b838110156107ae578082015181840152602081019050610793565b50505050905090810190601f1680156107db5780820380516001836020036101000a031916815260200191505b5086810385528d818151815260200191508051906020019080838360005b838110156108145780820151818401526020810190506107f9565b50505050905090810190601f1680156108415780820380516001836020036101000a031916815260200191505b5086810384528c818151815260200191508051906020019080838360005b8381101561087a57808201518184015260208101905061085f565b50505050905090810190601f1680156108a75780820380516001836020036101000a031916815260200191505b5086810383528b818151815260200191508051906020019080838360005b838110156108e05780820151818401526020810190506108c5565b50505050905090810190601f16801561090d5780820380516001836020036101000a031916815260200191505b5086810382528a818151815260200191508051906020019080838360005b8381101561094657808201518184015260208101905061092b565b50505050905090810190601f1680156109735780820380516001836020036101000a031916815260200191505b509f5050505050505050505050505050505060405180910390f35b610996611a62565b6040518082815260200191505060405180910390f35b6109e2600480360360408110156109c257600080fd5b810190808035906020019092919080359060200190929190505050611a68565b604051808481526020018060200180602001838103835285818151815260200191508051906020019080838360005b83811015610a2c578082015181840152602081019050610a11565b50505050905090810190601f168015610a595780820380516001836020036101000a031916815260200191505b50838103825284818151815260200191508051906020019080838360005b83811015610a92578082015181840152602081019050610a77565b50505050905090810190601f168015610abf5780820380516001836020036101000a031916815260200191505b509550505050505060405180910390f35b610afc60048036036020811015610ae657600080fd5b8101908080359060200190929190505050611bcf565b604051808781526020018681526020018581526020018481526020018060200180602001838103835285818151815260200191508051906020019080838360005b83811015610b58578082015181840152602081019050610b3d565b50505050905090810190601f168015610b855780820380516001836020036101000a031916815260200191505b50838103825284818151815260200191508051906020019080838360005b83811015610bbe578082015181840152602081019050610ba3565b50505050905090810190601f168015610beb5780820380516001836020036101000a031916815260200191505b509850505050505050505060405180910390f35b6000606080610c0c611d3b565b6004600086815260200190815260200160002060006001815260200190815260200160002060405180606001604052908160008201548152602001600182018054600181600116156101000203166002900480601f016020809104026020016040519081016040528092919081815260200182805460018160011615610100020316600290048015610cdf5780601f10610cb457610100808354040283529160200191610cdf565b820191906000526020600020905b815481529060010190602001808311610cc257829003601f168201915b50505050508152602001600282018054600181600116156101000203166002900480601f016020809104026020016040519081016040528092919081815260200182805460018160011615610100020316600290048015610d815780601f10610d5657610100808354040283529160200191610d81565b820191906000526020600020905b815481529060010190602001808311610d6457829003601f168201915b5050505050815250509050806000015181602001518260400151935093509350509193909250565b6000885111610e20576040517f08c379a00000000000000000000000000000000000000000000000000000000081526004018080602001828103825260138152602001807f506c65617365204164642046696c6d4e616d650000000000000000000000000081525060200191505060405180910390fd5b60008711610e79576040517f08c379a0000000000000000000000000000000000000000000000000000000008152600401808060200182810382526022815260200180611e386022913960400191505060405180910390fd5b6000855111610ef0576040517f08c379a000000000000000000000000000000000000000000000000000000000815260040180806020018281038252601b8152602001807f506c6561736520616464206120706f7374657220746f2066696c6d000000000081525060200191505060405180910390fd5b600080815480929190600101919050555060405180610140016040528060005481526020018981526020018881526020018781526020018681526020018581526020018481526020016000151581526020018381526020013373ffffffffffffffffffffffffffffffffffffffff168152506002600080548152602001908152602001600020600082015181600001556020820151816001019080519060200190610f9c929190611d5c565b50604082015181600201556060820151816003019080519060200190610fc3929190611d5c565b506080820151816004019080519060200190610fe0929190611d5c565b5060a0820151816005019080519060200190610ffd929190611d5c565b5060c082015181600601908051906020019061101a929190611d5c565b5060e08201518160070160006101000a81548160ff02191690831515021790555061010082015181600801556101208201518160090160006101000a81548173ffffffffffffffffffffffffffffffffffffffff021916908373ffffffffffffffffffffffffffffffffffffffff1602179055509050506040518060c00160405280600054815260200188815260200160008152602001600081526020016040518060400160405280600b81526020017f446576656c6f706d656e74000000000000000000000000000000000000000000815250815260200182815250600360008054815260200190815260200160002060008201518160000155602082015181600101556040820151816002015560608201518160030155608082015181600401908051906020019061114f929190611d5c565b5060a082015181600501908051906020019061116c929190611d5c565b509050507fc7bcc99603b830054d0a7d51c7e211664875f5b1d6e29fc6de4ff866bd498e9460005489898989898960008a33604051808b8152602001806020018a815260200180602001806020018060200180602001891515151581526020018881526020018773ffffffffffffffffffffffffffffffffffffffff1673ffffffffffffffffffffffffffffffffffffffff16815260200186810386528f818151815260200191508051906020019080838360005b8381101561123c578082015181840152602081019050611221565b50505050905090810190601f1680156112695780820380516001836020036101000a031916815260200191505b5086810385528d818151815260200191508051906020019080838360005b838110156112a2578082015181840152602081019050611287565b50505050905090810190601f1680156112cf5780820380516001836020036101000a031916815260200191505b5086810384528c818151815260200191508051906020019080838360005b838110156113085780820151818401526020810190506112ed565b50505050905090810190601f1680156113355780820380516001836020036101000a031916815260200191505b5086810383528b818151815260200191508051906020019080838360005b8381101561136e578082015181840152602081019050611353565b50505050905090810190601f16801561139b5780820380516001836020036101000a031916815260200191505b5086810382528a818151815260200191508051906020019080838360005b838110156113d45780820151818401526020810190506113b9565b50505050905090810190601f1680156114015780820380516001836020036101000a031916815260200191505b509f5050505050505050505050505050505060405180910390a15050505050505050565b61142d611ddc565b600360008581526020019081526020016000206040518060c001604052908160008201548152602001600182015481526020016002820154815260200160038201548152602001600482018054600181600116156101000203166002900480601f01602080910402602001604051908101604052809291908181526020018280546001816001161561010002031660029004801561150c5780601f106114e15761010080835404028352916020019161150c565b820191906000526020600020905b8154815290600101906020018083116114ef57829003601f168201915b50505050508152602001600582018054600181600116156101000203166002900480601f0160208091040260200160405190810160405280929190818152602001828054600181600116156101000203166002900480156115ae5780601f10611583576101008083540402835291602001916115ae565b820191906000526020600020905b81548152906001019060200180831161159157829003601f168201915b50505050508152505090506001600081548092919060010191905055506040518060600160405280858152602001838152602001848152506004600086815260200190815260200160002060006001548152602001908152602001600020600082015181600001556020820151816001019080519060200190611632929190611d5c565b50604082015181600201908051906020019061164f929190611d5c565b50905050600181606001510181606001818152505080600360008681526020019081526020016000206000820151816000015560208201518160010155604082015181600201556060820151816003015560808201518160040190805190602001906116bc929190611d5c565b5060a08201518160050190805190602001906116d9929190611d5c565b5090505050505050565b60005481565b6002602052806000526040600020600091509050806000015490806001018054600181600116156101000203166002900480601f01602080910402602001604051908101604052809291908181526020018280546001816001161561010002031660029004801561179b5780601f106117705761010080835404028352916020019161179b565b820191906000526020600020905b81548152906001019060200180831161177e57829003601f168201915b505050505090806002015490806003018054600181600116156101000203166002900480601f01602080910402602001604051908101604052809291908181526020018280546001816001161561010002031660029004801561183f5780601f106118145761010080835404028352916020019161183f565b820191906000526020600020905b81548152906001019060200180831161182257829003601f168201915b505050505090806004018054600181600116156101000203166002900480601f0160208091040260200160405190810160405280929190818152602001828054600181600116156101000203166002900480156118dd5780601f106118b2576101008083540402835291602001916118dd565b820191906000526020600020905b8154815290600101906020018083116118c057829003601f168201915b505050505090806005018054600181600116156101000203166002900480601f01602080910402602001604051908101604052809291908181526020018280546001816001161561010002031660029004801561197b5780601f106119505761010080835404028352916020019161197b565b820191906000526020600020905b81548152906001019060200180831161195e57829003601f168201915b505050505090806006018054600181600116156101000203166002900480601f016020809104026020016040519081016040528092919081815260200182805460018160011615610100020316600290048015611a195780601f106119ee57610100808354040283529160200191611a19565b820191906000526020600020905b8154815290600101906020018083116119fc57829003601f168201915b5050505050908060070160009054906101000a900460ff16908060080154908060090160009054906101000a900473ffffffffffffffffffffffffffffffffffffffff1690508a565b60015481565b600460205281600052604060002060205280600052604060002060009150915050806000015490806001018054600181600116156101000203166002900480601f016020809104026020016040519081016040528092919081815260200182805460018160011615610100020316600290048015611b275780601f10611afc57610100808354040283529160200191611b27565b820191906000526020600020905b815481529060010190602001808311611b0a57829003601f168201915b505050505090806002018054600181600116156101000203166002900480601f016020809104026020016040519081016040528092919081815260200182805460018160011615610100020316600290048015611bc55780601f10611b9a57610100808354040283529160200191611bc5565b820191906000526020600020905b815481529060010190602001808311611ba857829003601f168201915b5050505050905083565b6003602052806000526040600020600091509050806000015490806001015490806002015490806003015490806004018054600181600116156101000203166002900480601f016020809104026020016040519081016040528092919081815260200182805460018160011615610100020316600290048015611c935780601f10611c6857610100808354040283529160200191611c93565b820191906000526020600020905b815481529060010190602001808311611c7657829003601f168201915b505050505090806005018054600181600116156101000203166002900480601f016020809104026020016040519081016040528092919081815260200182805460018160011615610100020316600290048015611d315780601f10611d0657610100808354040283529160200191611d31565b820191906000526020600020905b815481529060010190602001808311611d1457829003601f168201915b5050505050905086565b60405180606001604052806000815260200160608152602001606081525090565b828054600181600116156101000203166002900490600052602060002090601f016020900481019282601f10611d9d57805160ff1916838001178555611dcb565b82800160010185558215611dcb579182015b82811115611dca578251825591602001919060010190611daf565b5b509050611dd89190611e12565b5090565b6040518060c001604052806000815260200160008152602001600081526020016000815260200160608152602001606081525090565b611e3491905b80821115611e30576000816000905550600101611e18565b5090565b9056fe506c65617365204164642074686520616d6f756e7420746f20626520726169736564a2646970667358221220ae5fab029f3812f9c7ea801cf26df81e112db47ccea00c53135e2a00971c153764736f6c63430006060033",
  "immutableReferences": {},
  "source": "pragma solidity >=0.6.0 <0.7.0;\n// pragma experimental ABIEncoderV2;\n\ncontract Cinema {\n    struct Film {\n        uint id;\n        string filmName;\n        uint256 budget;\n        string directorName;\n        string poster;\n        string script;\n        string shortDescription;\n        bool payedBack;\n        uint interestAmount;\n        address payable directorWalletAddress;\n    }\n    \n    struct FilmDetails {\n        uint id;\n        uint budgetToRaise;\n        uint fundRaised;\n        uint castCount;\n        string status;\n        string category;\n    }\n    \n    struct Cast {\n        uint filmId;\n        string image;\n        string name;\n    }\n    \n    event FilmCreated (\n        uint id,\n        string filmName,\n        uint256 budget,\n        string directorName,\n        string poster,\n        string script,\n        string shortDescription,\n        bool payedBack,\n        uint interestAmount,\n        address payable directorWalletAddress\n    );\n    \n    uint public filmsCount = 0;\n    uint public artistCount = 0;\n   \n    mapping (uint => Film) public films;\n    mapping (uint => FilmDetails) public filmsDetails;\n    mapping (uint => mapping(uint => Cast)) public filmsCast;\n    \n    \n    function createFilm(string memory _filmName, uint _budget, string memory _directorName, string memory _poster, string memory _script, string memory _shortDescription, uint _interestAmount, string memory _category) public { \n        require(bytes(_filmName).length > 0, 'Please Add FilmName');\n        require(_budget > 0, 'Please Add the amount to be raised');\n        require(bytes(_poster).length > 0, 'Please add a poster to film');\n        \n        \n        filmsCount++;\n        films[filmsCount] = Film(filmsCount, _filmName, _budget, _directorName, _poster, _script, _shortDescription, false, _interestAmount, msg.sender);\n        filmsDetails[filmsCount] = FilmDetails(filmsCount, _budget, 0, 0, 'Development', _category);\n        \n        emit FilmCreated(filmsCount, _filmName, _budget, _directorName, _poster, _script, _shortDescription, false, _interestAmount, msg.sender);\n    }\n    \n    function addCastToFilm(uint _filmId, string memory _name, string memory _image) public {\n        FilmDetails memory _filmDetails = filmsDetails[_filmId];\n        artistCount++;\n        filmsCast[_filmId][artistCount] = Cast(_filmId, _image, _name);\n        _filmDetails.castCount = _filmDetails.castCount + 1;\n        filmsDetails[_filmId] = _filmDetails;\n    }\n    \n    function getFilmCast(uint _filmId) public view returns (uint, string memory, string memory){\n        Cast memory c = filmsCast[_filmId][1];\n        return (c.filmId, c.image, c.name);\n    }\n  \n}\n",
  "sourcePath": "/Users/newsgate/Work/Production House/blockchain/contracts/cinema.sol",
  "compiler": {
    "name": "solc",
    "version": "0.6.6+commit.6c089d02.Emscripten.clang"
  },
  "schemaVersion": "3.2.3",
  "updatedAt": "2020-12-14T12:36:31.916Z",
  "devdoc": {
    "methods": {}
  },
  "userdoc": {
    "methods": {}
  }
}